{
  "_format": "hh-sol-artifact-1",
  "contractName": "NFTFactory",
  "sourceName": "contracts/NFT.sol",
  "abi": [
    {
      "inputs": [
        {
          "internalType": "string",
          "name": "_name",
          "type": "string"
        },
        {
          "internalType": "string",
          "name": "_symbol",
          "type": "string"
        },
        {
          "internalType": "string",
          "name": "_imageURI",
          "type": "string"
        },
        {
          "internalType": "string",
          "name": "_sizeOfPicture",
          "type": "string"
        },
        {
          "internalType": "uint256",
          "name": "_year",
          "type": "uint256"
        },
        {
          "internalType": "string",
          "name": "_nameOfAuthor",
          "type": "string"
        },
        {
          "internalType": "string",
          "name": "_style",
          "type": "string"
        }
      ],
      "stateMutability": "nonpayable",
      "type": "constructor"
    },
    {
      "anonymous": false,
      "inputs": [
        {
          "indexed": true,
          "internalType": "address",
          "name": "owner",
          "type": "address"
        },
        {
          "indexed": true,
          "internalType": "address",
          "name": "approved",
          "type": "address"
        },
        {
          "indexed": true,
          "internalType": "uint256",
          "name": "tokenId",
          "type": "uint256"
        }
      ],
      "name": "Approval",
      "type": "event"
    },
    {
      "anonymous": false,
      "inputs": [
        {
          "indexed": true,
          "internalType": "address",
          "name": "owner",
          "type": "address"
        },
        {
          "indexed": true,
          "internalType": "address",
          "name": "operator",
          "type": "address"
        },
        {
          "indexed": false,
          "internalType": "bool",
          "name": "approved",
          "type": "bool"
        }
      ],
      "name": "ApprovalForAll",
      "type": "event"
    },
    {
      "anonymous": false,
      "inputs": [
        {
          "indexed": true,
          "internalType": "address",
          "name": "previousOwner",
          "type": "address"
        },
        {
          "indexed": true,
          "internalType": "address",
          "name": "newOwner",
          "type": "address"
        }
      ],
      "name": "OwnershipTransferred",
      "type": "event"
    },
    {
      "anonymous": false,
      "inputs": [
        {
          "indexed": true,
          "internalType": "address",
          "name": "from",
          "type": "address"
        },
        {
          "indexed": true,
          "internalType": "address",
          "name": "to",
          "type": "address"
        },
        {
          "indexed": true,
          "internalType": "uint256",
          "name": "tokenId",
          "type": "uint256"
        }
      ],
      "name": "Transfer",
      "type": "event"
    },
    {
      "inputs": [
        {
          "internalType": "address",
          "name": "to",
          "type": "address"
        },
        {
          "internalType": "uint256",
          "name": "tokenId",
          "type": "uint256"
        }
      ],
      "name": "approve",
      "outputs": [],
      "stateMutability": "nonpayable",
      "type": "function"
    },
    {
      "inputs": [
        {
          "internalType": "address",
          "name": "owner",
          "type": "address"
        }
      ],
      "name": "balanceOf",
      "outputs": [
        {
          "internalType": "uint256",
          "name": "",
          "type": "uint256"
        }
      ],
      "stateMutability": "view",
      "type": "function"
    },
    {
      "inputs": [
        {
          "internalType": "uint256",
          "name": "tokenId",
          "type": "uint256"
        }
      ],
      "name": "getApproved",
      "outputs": [
        {
          "internalType": "address",
          "name": "",
          "type": "address"
        }
      ],
      "stateMutability": "view",
      "type": "function"
    },
    {
      "inputs": [],
      "name": "getNFTMetadata",
      "outputs": [
        {
          "components": [
            {
              "internalType": "string",
              "name": "name_",
              "type": "string"
            },
            {
              "internalType": "string",
              "name": "ticker_",
              "type": "string"
            },
            {
              "internalType": "string",
              "name": "imageURI_",
              "type": "string"
            },
            {
              "internalType": "string",
              "name": "sizeOfPicture_",
              "type": "string"
            },
            {
              "internalType": "uint256",
              "name": "year_",
              "type": "uint256"
            },
            {
              "internalType": "string",
              "name": "nameOfAuthor_",
              "type": "string"
            },
            {
              "internalType": "string",
              "name": "style_",
              "type": "string"
            }
          ],
          "internalType": "struct NFTFactory.NFTMetadata",
          "name": "",
          "type": "tuple"
        }
      ],
      "stateMutability": "view",
      "type": "function"
    },
    {
      "inputs": [
        {
          "internalType": "address",
          "name": "owner",
          "type": "address"
        },
        {
          "internalType": "address",
          "name": "operator",
          "type": "address"
        }
      ],
      "name": "isApprovedForAll",
      "outputs": [
        {
          "internalType": "bool",
          "name": "",
          "type": "bool"
        }
      ],
      "stateMutability": "view",
      "type": "function"
    },
    {
      "inputs": [
        {
          "internalType": "string",
          "name": "_name",
          "type": "string"
        },
        {
          "internalType": "string",
          "name": "_ticker",
          "type": "string"
        },
        {
          "internalType": "string",
          "name": "_imageURI",
          "type": "string"
        },
        {
          "internalType": "string",
          "name": "_sizeOfPicture",
          "type": "string"
        },
        {
          "internalType": "uint256",
          "name": "_year",
          "type": "uint256"
        },
        {
          "internalType": "string",
          "name": "_nameOfAuthor",
          "type": "string"
        },
        {
          "internalType": "string",
          "name": "_style",
          "type": "string"
        }
      ],
      "name": "mintNFT",
      "outputs": [],
      "stateMutability": "nonpayable",
      "type": "function"
    },
    {
      "inputs": [],
      "name": "name",
      "outputs": [
        {
          "internalType": "string",
          "name": "",
          "type": "string"
        }
      ],
      "stateMutability": "view",
      "type": "function"
    },
    {
      "inputs": [],
      "name": "owner",
      "outputs": [
        {
          "internalType": "address",
          "name": "",
          "type": "address"
        }
      ],
      "stateMutability": "view",
      "type": "function"
    },
    {
      "inputs": [
        {
          "internalType": "uint256",
          "name": "tokenId",
          "type": "uint256"
        }
      ],
      "name": "ownerOf",
      "outputs": [
        {
          "internalType": "address",
          "name": "",
          "type": "address"
        }
      ],
      "stateMutability": "view",
      "type": "function"
    },
    {
      "inputs": [],
      "name": "renounceOwnership",
      "outputs": [],
      "stateMutability": "nonpayable",
      "type": "function"
    },
    {
      "inputs": [
        {
          "internalType": "address",
          "name": "from",
          "type": "address"
        },
        {
          "internalType": "address",
          "name": "to",
          "type": "address"
        },
        {
          "internalType": "uint256",
          "name": "tokenId",
          "type": "uint256"
        }
      ],
      "name": "safeTransferFrom",
      "outputs": [],
      "stateMutability": "nonpayable",
      "type": "function"
    },
    {
      "inputs": [
        {
          "internalType": "address",
          "name": "from",
          "type": "address"
        },
        {
          "internalType": "address",
          "name": "to",
          "type": "address"
        },
        {
          "internalType": "uint256",
          "name": "tokenId",
          "type": "uint256"
        },
        {
          "internalType": "bytes",
          "name": "data",
          "type": "bytes"
        }
      ],
      "name": "safeTransferFrom",
      "outputs": [],
      "stateMutability": "nonpayable",
      "type": "function"
    },
    {
      "inputs": [
        {
          "internalType": "address",
          "name": "operator",
          "type": "address"
        },
        {
          "internalType": "bool",
          "name": "approved",
          "type": "bool"
        }
      ],
      "name": "setApprovalForAll",
      "outputs": [],
      "stateMutability": "nonpayable",
      "type": "function"
    },
    {
      "inputs": [
        {
          "internalType": "string",
          "name": "_name",
          "type": "string"
        },
        {
          "internalType": "string",
          "name": "_ticker",
          "type": "string"
        },
        {
          "internalType": "string",
          "name": "_imageURI",
          "type": "string"
        },
        {
          "internalType": "string",
          "name": "_sizeOfPicture",
          "type": "string"
        },
        {
          "internalType": "uint256",
          "name": "_year",
          "type": "uint256"
        },
        {
          "internalType": "string",
          "name": "_nameOfAuthor",
          "type": "string"
        },
        {
          "internalType": "string",
          "name": "_style",
          "type": "string"
        }
      ],
      "name": "setNFTMetadata",
      "outputs": [],
      "stateMutability": "nonpayable",
      "type": "function"
    },
    {
      "inputs": [
        {
          "internalType": "bytes4",
          "name": "interfaceId",
          "type": "bytes4"
        }
      ],
      "name": "supportsInterface",
      "outputs": [
        {
          "internalType": "bool",
          "name": "",
          "type": "bool"
        }
      ],
      "stateMutability": "view",
      "type": "function"
    },
    {
      "inputs": [],
      "name": "symbol",
      "outputs": [
        {
          "internalType": "string",
          "name": "",
          "type": "string"
        }
      ],
      "stateMutability": "view",
      "type": "function"
    },
    {
      "inputs": [
        {
          "internalType": "uint256",
          "name": "tokenId",
          "type": "uint256"
        }
      ],
      "name": "tokenURI",
      "outputs": [
        {
          "internalType": "string",
          "name": "",
          "type": "string"
        }
      ],
      "stateMutability": "view",
      "type": "function"
    },
    {
      "inputs": [
        {
          "internalType": "address",
          "name": "from",
          "type": "address"
        },
        {
          "internalType": "address",
          "name": "to",
          "type": "address"
        },
        {
          "internalType": "uint256",
          "name": "tokenId",
          "type": "uint256"
        }
      ],
      "name": "transferFrom",
      "outputs": [],
      "stateMutability": "nonpayable",
      "type": "function"
    },
    {
      "inputs": [
        {
          "internalType": "address",
          "name": "newOwner",
          "type": "address"
        }
      ],
      "name": "transferOwnership",
      "outputs": [],
      "stateMutability": "nonpayable",
      "type": "function"
    }
  ],
  "bytecode": "0x60806040523480156200001157600080fd5b506040516200518238038062005182833981810160405281019062000037919062000eb9565b868681600090816200004a919062001267565b5080600190816200005c919062001267565b5050506200007f620000736200033c60201b60201c565b6200034460201b60201c565b846007908162000090919062001267565b508360089081620000a2919062001267565b508260098190555081600a9081620000bb919062001267565b5080600b9081620000cd919062001267565b506200032f878760078054620000e39062001060565b80601f0160208091040260200160405190810160405280929190818152602001828054620001119062001060565b8015620001625780601f10620001365761010080835404028352916020019162000162565b820191906000526020600020905b8154815290600101906020018083116200014457829003601f168201915b505050505060088054620001769062001060565b80601f0160208091040260200160405190810160405280929190818152602001828054620001a49062001060565b8015620001f55780601f10620001c957610100808354040283529160200191620001f5565b820191906000526020600020905b815481529060010190602001808311620001d757829003601f168201915b5050505050600954600a80546200020c9062001060565b80601f01602080910402602001604051908101604052809291908181526020018280546200023a9062001060565b80156200028b5780601f106200025f576101008083540402835291602001916200028b565b820191906000526020600020905b8154815290600101906020018083116200026d57829003601f168201915b5050505050600b80546200029f9062001060565b80601f0160208091040260200160405190810160405280929190818152602001828054620002cd9062001060565b80156200031e5780601f10620002f2576101008083540402835291602001916200031e565b820191906000526020600020905b8154815290600101906020018083116200030057829003601f168201915b50505050506200040a60201b60201c565b5050505050505062001a01565b600033905090565b6000600660009054906101000a900473ffffffffffffffffffffffffffffffffffffffff16905081600660006101000a81548173ffffffffffffffffffffffffffffffffffffffff021916908373ffffffffffffffffffffffffffffffffffffffff1602179055508173ffffffffffffffffffffffffffffffffffffffff168173ffffffffffffffffffffffffffffffffffffffff167f8be0079c531659141344cd1fd0a4f28419497f9722a3daafe3b4186f6b6457e060405160405180910390a35050565b6200041a620006f860201b60201c565b600087511162000461576040517f08c379a00000000000000000000000000000000000000000000000000000000081526004016200045890620013af565b60405180910390fd5b6000865111620004a8576040517f08c379a00000000000000000000000000000000000000000000000000000000081526004016200049f9062001421565b60405180910390fd5b6000855111620004ef576040517f08c379a0000000000000000000000000000000000000000000000000000000008152600401620004e69062001493565b60405180910390fd5b600084511162000536576040517f08c379a00000000000000000000000000000000000000000000000000000000081526004016200052d9062001505565b60405180910390fd5b600083116200057c576040517f08c379a0000000000000000000000000000000000000000000000000000000008152600401620005739062001577565b60405180910390fd5b6000825111620005c3576040517f08c379a0000000000000000000000000000000000000000000000000000000008152600401620005ba90620015e9565b60405180910390fd5b60008151116200060a576040517f08c379a000000000000000000000000000000000000000000000000000000000815260040162000601906200165b565b60405180910390fd5b6040518060e0016040528088815260200187815260200186815260200185815260200184815260200183815260200182815250600c600082015181600001908162000656919062001267565b5060208201518160010190816200066e919062001267565b50604082015181600201908162000686919062001267565b5060608201518160030190816200069e919062001267565b506080820151816004015560a0820151816005019081620006c0919062001267565b5060c0820151816006019081620006d8919062001267565b50905050620006ef3360016200078960201b60201c565b50505050505050565b620007086200033c60201b60201c565b73ffffffffffffffffffffffffffffffffffffffff166200072e620007af60201b60201c565b73ffffffffffffffffffffffffffffffffffffffff161462000787576040517f08c379a00000000000000000000000000000000000000000000000000000000081526004016200077e90620016cd565b60405180910390fd5b565b620007ab828260405180602001604052806000815250620007d960201b60201c565b5050565b6000600660009054906101000a900473ffffffffffffffffffffffffffffffffffffffff16905090565b620007eb83836200084760201b60201c565b62000800600084848462000a8d60201b60201c565b62000842576040517f08c379a0000000000000000000000000000000000000000000000000000000008152600401620008399062001765565b60405180910390fd5b505050565b600073ffffffffffffffffffffffffffffffffffffffff168273ffffffffffffffffffffffffffffffffffffffff1603620008b9576040517f08c379a0000000000000000000000000000000000000000000000000000000008152600401620008b090620017d7565b60405180910390fd5b620008ca8162000c3660201b60201c565b156200090d576040517f08c379a0000000000000000000000000000000000000000000000000000000008152600401620009049062001849565b60405180910390fd5b6200092360008383600162000c7f60201b60201c565b620009348162000c3660201b60201c565b1562000977576040517f08c379a00000000000000000000000000000000000000000000000000000000081526004016200096e9062001849565b60405180910390fd5b6001600360008473ffffffffffffffffffffffffffffffffffffffff1673ffffffffffffffffffffffffffffffffffffffff16815260200190815260200160002060008282540192505081905550816002600083815260200190815260200160002060006101000a81548173ffffffffffffffffffffffffffffffffffffffff021916908373ffffffffffffffffffffffffffffffffffffffff160217905550808273ffffffffffffffffffffffffffffffffffffffff16600073ffffffffffffffffffffffffffffffffffffffff167fddf252ad1be2c89b69c2b068fc378daa952ba7f163c4a11628f55a4df523b3ef60405160405180910390a462000a8960008383600162000c8560201b60201c565b5050565b600062000abb8473ffffffffffffffffffffffffffffffffffffffff1662000c8b60201b620012e61760201c565b1562000c29578373ffffffffffffffffffffffffffffffffffffffff1663150b7a0262000aed6200033c60201b60201c565b8786866040518563ffffffff1660e01b815260040162000b1194939291906200191e565b6020604051808303816000875af192505050801562000b5057506040513d601f19601f8201168201806040525081019062000b4d9190620019cf565b60015b62000bd8573d806000811462000b83576040519150601f19603f3d011682016040523d82523d6000602084013e62000b88565b606091505b50600081510362000bd0576040517f08c379a000000000000000000000000000000000000000000000000000000000815260040162000bc79062001765565b60405180910390fd5b805181602001fd5b63150b7a0260e01b7bffffffffffffffffffffffffffffffffffffffffffffffffffffffff1916817bffffffffffffffffffffffffffffffffffffffffffffffffffffffff19161491505062000c2e565b600190505b949350505050565b60008073ffffffffffffffffffffffffffffffffffffffff1662000c608362000cae60201b60201c565b73ffffffffffffffffffffffffffffffffffffffff1614159050919050565b50505050565b50505050565b6000808273ffffffffffffffffffffffffffffffffffffffff163b119050919050565b60006002600083815260200190815260200160002060009054906101000a900473ffffffffffffffffffffffffffffffffffffffff169050919050565b6000604051905090565b600080fd5b600080fd5b600080fd5b600080fd5b6000601f19601f8301169050919050565b7f4e487b7100000000000000000000000000000000000000000000000000000000600052604160045260246000fd5b62000d548262000d09565b810181811067ffffffffffffffff8211171562000d765762000d7562000d1a565b5b80604052505050565b600062000d8b62000ceb565b905062000d99828262000d49565b919050565b600067ffffffffffffffff82111562000dbc5762000dbb62000d1a565b5b62000dc78262000d09565b9050602081019050919050565b60005b8381101562000df457808201518184015260208101905062000dd7565b60008484015250505050565b600062000e1762000e118462000d9e565b62000d7f565b90508281526020810184848401111562000e365762000e3562000d04565b5b62000e4384828562000dd4565b509392505050565b600082601f83011262000e635762000e6262000cff565b5b815162000e7584826020860162000e00565b91505092915050565b6000819050919050565b62000e938162000e7e565b811462000e9f57600080fd5b50565b60008151905062000eb38162000e88565b92915050565b600080600080600080600060e0888a03121562000edb5762000eda62000cf5565b5b600088015167ffffffffffffffff81111562000efc5762000efb62000cfa565b5b62000f0a8a828b0162000e4b565b975050602088015167ffffffffffffffff81111562000f2e5762000f2d62000cfa565b5b62000f3c8a828b0162000e4b565b965050604088015167ffffffffffffffff81111562000f605762000f5f62000cfa565b5b62000f6e8a828b0162000e4b565b955050606088015167ffffffffffffffff81111562000f925762000f9162000cfa565b5b62000fa08a828b0162000e4b565b945050608062000fb38a828b0162000ea2565b93505060a088015167ffffffffffffffff81111562000fd75762000fd662000cfa565b5b62000fe58a828b0162000e4b565b92505060c088015167ffffffffffffffff81111562001009576200100862000cfa565b5b620010178a828b0162000e4b565b91505092959891949750929550565b600081519050919050565b7f4e487b7100000000000000000000000000000000000000000000000000000000600052602260045260246000fd5b600060028204905060018216806200107957607f821691505b6020821081036200108f576200108e62001031565b5b50919050565b60008190508160005260206000209050919050565b60006020601f8301049050919050565b600082821b905092915050565b600060088302620010f97fffffffffffffffffffffffffffffffffffffffffffffffffffffffffffffffff82620010ba565b620011058683620010ba565b95508019841693508086168417925050509392505050565b6000819050919050565b600062001148620011426200113c8462000e7e565b6200111d565b62000e7e565b9050919050565b6000819050919050565b620011648362001127565b6200117c62001173826200114f565b848454620010c7565b825550505050565b600090565b6200119362001184565b620011a081848462001159565b505050565b5b81811015620011c857620011bc60008262001189565b600181019050620011a6565b5050565b601f8211156200121757620011e18162001095565b620011ec84620010aa565b81016020851015620011fc578190505b620012146200120b85620010aa565b830182620011a5565b50505b505050565b600082821c905092915050565b60006200123c600019846008026200121c565b1980831691505092915050565b600062001257838362001229565b9150826002028217905092915050565b620012728262001026565b67ffffffffffffffff8111156200128e576200128d62000d1a565b5b6200129a825462001060565b620012a7828285620011cc565b600060209050601f831160018114620012df5760008415620012ca578287015190505b620012d6858262001249565b86555062001346565b601f198416620012ef8662001095565b60005b828110156200131957848901518255600182019150602085019450602081019050620012f2565b8683101562001339578489015162001335601f89168262001229565b8355505b6001600288020188555050505b505050505050565b600082825260208201905092915050565b7f4e616d652063616e6e6f7420626520656d707479000000000000000000000000600082015250565b6000620013976014836200134e565b9150620013a4826200135f565b602082019050919050565b60006020820190508181036000830152620013ca8162001388565b9050919050565b7f5469636b65722063616e6e6f7420626520656d70747900000000000000000000600082015250565b6000620014096016836200134e565b91506200141682620013d1565b602082019050919050565b600060208201905081810360008301526200143c81620013fa565b9050919050565b7f496d616765205552492063616e6e6f7420626520656d70747900000000000000600082015250565b60006200147b6019836200134e565b9150620014888262001443565b602082019050919050565b60006020820190508181036000830152620014ae816200146c565b9050919050565b7f53697a65206f6620506963747572652063616e6e6f7420626520656d70747900600082015250565b6000620014ed601f836200134e565b9150620014fa82620014b5565b602082019050919050565b600060208201905081810360008301526200152081620014de565b9050919050565b7f596561722063616e6e6f7420626520656d707479000000000000000000000000600082015250565b60006200155f6014836200134e565b91506200156c8262001527565b602082019050919050565b60006020820190508181036000830152620015928162001550565b9050919050565b7f4e616d65204f6620417574686f722063616e6e6f7420626520656d7074790000600082015250565b6000620015d1601e836200134e565b9150620015de8262001599565b602082019050919050565b600060208201905081810360008301526200160481620015c2565b9050919050565b7f5374796c652063616e6e6f7420626520656d7074790000000000000000000000600082015250565b6000620016436015836200134e565b915062001650826200160b565b602082019050919050565b60006020820190508181036000830152620016768162001634565b9050919050565b7f4f776e61626c653a2063616c6c6572206973206e6f7420746865206f776e6572600082015250565b6000620016b56020836200134e565b9150620016c2826200167d565b602082019050919050565b60006020820190508181036000830152620016e881620016a6565b9050919050565b7f4552433732313a207472616e7366657220746f206e6f6e20455243373231526560008201527f63656976657220696d706c656d656e7465720000000000000000000000000000602082015250565b60006200174d6032836200134e565b91506200175a82620016ef565b604082019050919050565b6000602082019050818103600083015262001780816200173e565b9050919050565b7f4552433732313a206d696e7420746f20746865207a65726f2061646472657373600082015250565b6000620017bf6020836200134e565b9150620017cc8262001787565b602082019050919050565b60006020820190508181036000830152620017f281620017b0565b9050919050565b7f4552433732313a20746f6b656e20616c7265616479206d696e74656400000000600082015250565b600062001831601c836200134e565b91506200183e82620017f9565b602082019050919050565b60006020820190508181036000830152620018648162001822565b9050919050565b600073ffffffffffffffffffffffffffffffffffffffff82169050919050565b600062001898826200186b565b9050919050565b620018aa816200188b565b82525050565b620018bb8162000e7e565b82525050565b600081519050919050565b600082825260208201905092915050565b6000620018ea82620018c1565b620018f68185620018cc565b93506200190881856020860162000dd4565b620019138162000d09565b840191505092915050565b60006080820190506200193560008301876200189f565b6200194460208301866200189f565b620019536040830185620018b0565b8181036060830152620019678184620018dd565b905095945050505050565b60007fffffffff0000000000000000000000000000000000000000000000000000000082169050919050565b620019a98162001972565b8114620019b557600080fd5b50565b600081519050620019c9816200199e565b92915050565b600060208284031215620019e857620019e762000cf5565b5b6000620019f884828501620019b8565b91505092915050565b6137718062001a116000396000f3fe608060405234801561001057600080fd5b50600436106101215760003560e01c80636d282e6a116100ad578063a22cb46511610071578063a22cb465146102f4578063b88d4fde14610310578063c87b56dd1461032c578063e985e9c51461035c578063f2fde38b1461038c57610121565b80636d282e6a1461026057806370a082311461027e578063715018a6146102ae5780638da5cb5b146102b857806395d89b41146102d657610121565b806323b872dd116100f457806323b872dd146101c057806329e058ec146101dc57806341ab6885146101f857806342842e0e146102145780636352211e1461023057610121565b806301ffc9a71461012657806306fdde0314610156578063081812fc14610174578063095ea7b3146101a4575b600080fd5b610140600480360381019061013b9190612069565b6103a8565b60405161014d91906120b1565b60405180910390f35b61015e61048a565b60405161016b919061215c565b60405180910390f35b61018e600480360381019061018991906121b4565b61051f565b60405161019b9190612222565b60405180910390f35b6101be60048036038101906101b99190612269565b610565565b005b6101da60048036038101906101d591906122a9565b61067c565b005b6101f660048036038101906101f19190612431565b6106dc565b005b610212600480360381019061020d9190612431565b6107b2565b005b61022e600480360381019061022991906122a9565b610a6f565b005b61024a600480360381019061024591906121b4565b610a8f565b6040516102579190612222565b60405180910390f35b610268610b15565b6040516102759190612693565b60405180910390f35b610298600480360381019061029391906126b5565b610eee565b6040516102a591906126f1565b60405180910390f35b6102b6610fa5565b005b6102c0610fb9565b6040516102cd9190612222565b60405180910390f35b6102de610fe3565b6040516102eb919061215c565b60405180910390f35b61030e60048036038101906103099190612738565b611078565b005b61032a60048036038101906103259190612819565b61108e565b005b610346600480360381019061034191906121b4565b6110f0565b604051610353919061215c565b60405180910390f35b6103766004803603810190610371919061289c565b6111cf565b60405161038391906120b1565b60405180910390f35b6103a660048036038101906103a191906126b5565b611263565b005b60007f80ac58cd000000000000000000000000000000000000000000000000000000007bffffffffffffffffffffffffffffffffffffffffffffffffffffffff1916827bffffffffffffffffffffffffffffffffffffffffffffffffffffffff1916148061047357507f5b5e139f000000000000000000000000000000000000000000000000000000007bffffffffffffffffffffffffffffffffffffffffffffffffffffffff1916827bffffffffffffffffffffffffffffffffffffffffffffffffffffffff1916145b80610483575061048282611309565b5b9050919050565b6060600c600001805461049c9061290b565b80601f01602080910402602001604051908101604052809291908181526020018280546104c89061290b565b80156105155780601f106104ea57610100808354040283529160200191610515565b820191906000526020600020905b8154815290600101906020018083116104f857829003601f168201915b5050505050905090565b600061052a82611373565b6004600083815260200190815260200160002060009054906101000a900473ffffffffffffffffffffffffffffffffffffffff169050919050565b600061057082610a8f565b90508073ffffffffffffffffffffffffffffffffffffffff168373ffffffffffffffffffffffffffffffffffffffff16036105e0576040517f08c379a00000000000000000000000000000000000000000000000000000000081526004016105d7906129ae565b60405180910390fd5b8073ffffffffffffffffffffffffffffffffffffffff166105ff6113be565b73ffffffffffffffffffffffffffffffffffffffff16148061062e575061062d816106286113be565b6111cf565b5b61066d576040517f08c379a000000000000000000000000000000000000000000000000000000000815260040161066490612a40565b60405180910390fd5b61067783836113c6565b505050565b61068d6106876113be565b8261147f565b6106cc576040517f08c379a00000000000000000000000000000000000000000000000000000000081526004016106c390612ad2565b60405180910390fd5b6106d7838383611514565b505050565b6106e461180d565b6106ee600161188b565b61072d576040517f08c379a000000000000000000000000000000000000000000000000000000000815260040161072490612b3e565b60405180910390fd5b86600c600001908161073f9190612d0a565b5085600c60010190816107529190612d0a565b5084600c60020190816107659190612d0a565b5083600c60030190816107789190612d0a565b5082600c6004018190555081600c60050190816107959190612d0a565b5080600c60060190816107a89190612d0a565b5050505050505050565b6107ba61180d565b60008751116107fe576040517f08c379a00000000000000000000000000000000000000000000000000000000081526004016107f590612e28565b60405180910390fd5b6000865111610842576040517f08c379a000000000000000000000000000000000000000000000000000000000815260040161083990612e94565b60405180910390fd5b6000855111610886576040517f08c379a000000000000000000000000000000000000000000000000000000000815260040161087d90612f00565b60405180910390fd5b60008451116108ca576040517f08c379a00000000000000000000000000000000000000000000000000000000081526004016108c190612f6c565b60405180910390fd5b6000831161090d576040517f08c379a000000000000000000000000000000000000000000000000000000000815260040161090490612fd8565b60405180910390fd5b6000825111610951576040517f08c379a000000000000000000000000000000000000000000000000000000000815260040161094890613044565b60405180910390fd5b6000815111610995576040517f08c379a000000000000000000000000000000000000000000000000000000000815260040161098c906130b0565b60405180910390fd5b6040518060e0016040528088815260200187815260200186815260200185815260200184815260200183815260200182815250600c60008201518160000190816109df9190612d0a565b5060208201518160010190816109f59190612d0a565b506040820151816002019081610a0b9190612d0a565b506060820151816003019081610a219190612d0a565b506080820151816004015560a0820151816005019081610a419190612d0a565b5060c0820151816006019081610a579190612d0a565b50905050610a663360016118cc565b50505050505050565b610a8a8383836040518060200160405280600081525061108e565b505050565b600080610a9b836118ea565b9050600073ffffffffffffffffffffffffffffffffffffffff168173ffffffffffffffffffffffffffffffffffffffff1603610b0c576040517f08c379a0000000000000000000000000000000000000000000000000000000008152600401610b039061311c565b60405180910390fd5b80915050919050565b610b1d611fc0565b610b27600161188b565b610b66576040517f08c379a0000000000000000000000000000000000000000000000000000000008152600401610b5d90612b3e565b60405180910390fd5b600c6040518060e0016040529081600082018054610b839061290b565b80601f0160208091040260200160405190810160405280929190818152602001828054610baf9061290b565b8015610bfc5780601f10610bd157610100808354040283529160200191610bfc565b820191906000526020600020905b815481529060010190602001808311610bdf57829003601f168201915b50505050508152602001600182018054610c159061290b565b80601f0160208091040260200160405190810160405280929190818152602001828054610c419061290b565b8015610c8e5780601f10610c6357610100808354040283529160200191610c8e565b820191906000526020600020905b815481529060010190602001808311610c7157829003601f168201915b50505050508152602001600282018054610ca79061290b565b80601f0160208091040260200160405190810160405280929190818152602001828054610cd39061290b565b8015610d205780601f10610cf557610100808354040283529160200191610d20565b820191906000526020600020905b815481529060010190602001808311610d0357829003601f168201915b50505050508152602001600382018054610d399061290b565b80601f0160208091040260200160405190810160405280929190818152602001828054610d659061290b565b8015610db25780601f10610d8757610100808354040283529160200191610db2565b820191906000526020600020905b815481529060010190602001808311610d9557829003601f168201915b5050505050815260200160048201548152602001600582018054610dd59061290b565b80601f0160208091040260200160405190810160405280929190818152602001828054610e019061290b565b8015610e4e5780601f10610e2357610100808354040283529160200191610e4e565b820191906000526020600020905b815481529060010190602001808311610e3157829003601f168201915b50505050508152602001600682018054610e679061290b565b80601f0160208091040260200160405190810160405280929190818152602001828054610e939061290b565b8015610ee05780601f10610eb557610100808354040283529160200191610ee0565b820191906000526020600020905b815481529060010190602001808311610ec357829003601f168201915b505050505081525050905090565b60008073ffffffffffffffffffffffffffffffffffffffff168273ffffffffffffffffffffffffffffffffffffffff1603610f5e576040517f08c379a0000000000000000000000000000000000000000000000000000000008152600401610f55906131ae565b60405180910390fd5b600360008373ffffffffffffffffffffffffffffffffffffffff1673ffffffffffffffffffffffffffffffffffffffff168152602001908152602001600020549050919050565b610fad61180d565b610fb76000611927565b565b6000600660009054906101000a900473ffffffffffffffffffffffffffffffffffffffff16905090565b6060600c6001018054610ff59061290b565b80601f01602080910402602001604051908101604052809291908181526020018280546110219061290b565b801561106e5780601f106110435761010080835404028352916020019161106e565b820191906000526020600020905b81548152906001019060200180831161105157829003601f168201915b5050505050905090565b61108a6110836113be565b83836119ed565b5050565b61109f6110996113be565b8361147f565b6110de576040517f08c379a00000000000000000000000000000000000000000000000000000000081526004016110d590612ad2565b60405180910390fd5b6110ea84848484611b59565b50505050565b60606110fb8261188b565b61113a576040517f08c379a000000000000000000000000000000000000000000000000000000000815260040161113190613240565b60405180910390fd5b600c600201805461114a9061290b565b80601f01602080910402602001604051908101604052809291908181526020018280546111769061290b565b80156111c35780601f10611198576101008083540402835291602001916111c3565b820191906000526020600020905b8154815290600101906020018083116111a657829003601f168201915b50505050509050919050565b6000600560008473ffffffffffffffffffffffffffffffffffffffff1673ffffffffffffffffffffffffffffffffffffffff16815260200190815260200160002060008373ffffffffffffffffffffffffffffffffffffffff1673ffffffffffffffffffffffffffffffffffffffff16815260200190815260200160002060009054906101000a900460ff16905092915050565b61126b61180d565b600073ffffffffffffffffffffffffffffffffffffffff168173ffffffffffffffffffffffffffffffffffffffff16036112da576040517f08c379a00000000000000000000000000000000000000000000000000000000081526004016112d1906132d2565b60405180910390fd5b6112e381611927565b50565b6000808273ffffffffffffffffffffffffffffffffffffffff163b119050919050565b60007f01ffc9a7000000000000000000000000000000000000000000000000000000007bffffffffffffffffffffffffffffffffffffffffffffffffffffffff1916827bffffffffffffffffffffffffffffffffffffffffffffffffffffffff1916149050919050565b61137c8161188b565b6113bb576040517f08c379a00000000000000000000000000000000000000000000000000000000081526004016113b29061311c565b60405180910390fd5b50565b600033905090565b816004600083815260200190815260200160002060006101000a81548173ffffffffffffffffffffffffffffffffffffffff021916908373ffffffffffffffffffffffffffffffffffffffff160217905550808273ffffffffffffffffffffffffffffffffffffffff1661143983610a8f565b73ffffffffffffffffffffffffffffffffffffffff167f8c5be1e5ebec7d5bd14f71427d1e84f3dd0314c0f7b2291e5b200ac8c7c3b92560405160405180910390a45050565b60008061148b83610a8f565b90508073ffffffffffffffffffffffffffffffffffffffff168473ffffffffffffffffffffffffffffffffffffffff1614806114cd57506114cc81856111cf565b5b8061150b57508373ffffffffffffffffffffffffffffffffffffffff166114f38461051f565b73ffffffffffffffffffffffffffffffffffffffff16145b91505092915050565b8273ffffffffffffffffffffffffffffffffffffffff1661153482610a8f565b73ffffffffffffffffffffffffffffffffffffffff161461158a576040517f08c379a000000000000000000000000000000000000000000000000000000000815260040161158190613364565b60405180910390fd5b600073ffffffffffffffffffffffffffffffffffffffff168273ffffffffffffffffffffffffffffffffffffffff16036115f9576040517f08c379a00000000000000000000000000000000000000000000000000000000081526004016115f0906133f6565b60405180910390fd5b6116068383836001611bb5565b8273ffffffffffffffffffffffffffffffffffffffff1661162682610a8f565b73ffffffffffffffffffffffffffffffffffffffff161461167c576040517f08c379a000000000000000000000000000000000000000000000000000000000815260040161167390613364565b60405180910390fd5b6004600082815260200190815260200160002060006101000a81549073ffffffffffffffffffffffffffffffffffffffff02191690556001600360008573ffffffffffffffffffffffffffffffffffffffff1673ffffffffffffffffffffffffffffffffffffffff168152602001908152602001600020600082825403925050819055506001600360008473ffffffffffffffffffffffffffffffffffffffff1673ffffffffffffffffffffffffffffffffffffffff16815260200190815260200160002060008282540192505081905550816002600083815260200190815260200160002060006101000a81548173ffffffffffffffffffffffffffffffffffffffff021916908373ffffffffffffffffffffffffffffffffffffffff160217905550808273ffffffffffffffffffffffffffffffffffffffff168473ffffffffffffffffffffffffffffffffffffffff167fddf252ad1be2c89b69c2b068fc378daa952ba7f163c4a11628f55a4df523b3ef60405160405180910390a46118088383836001611bbb565b505050565b6118156113be565b73ffffffffffffffffffffffffffffffffffffffff16611833610fb9565b73ffffffffffffffffffffffffffffffffffffffff1614611889576040517f08c379a000000000000000000000000000000000000000000000000000000000815260040161188090613462565b60405180910390fd5b565b60008073ffffffffffffffffffffffffffffffffffffffff166118ad836118ea565b73ffffffffffffffffffffffffffffffffffffffff1614159050919050565b6118e6828260405180602001604052806000815250611bc1565b5050565b60006002600083815260200190815260200160002060009054906101000a900473ffffffffffffffffffffffffffffffffffffffff169050919050565b6000600660009054906101000a900473ffffffffffffffffffffffffffffffffffffffff16905081600660006101000a81548173ffffffffffffffffffffffffffffffffffffffff021916908373ffffffffffffffffffffffffffffffffffffffff1602179055508173ffffffffffffffffffffffffffffffffffffffff168173ffffffffffffffffffffffffffffffffffffffff167f8be0079c531659141344cd1fd0a4f28419497f9722a3daafe3b4186f6b6457e060405160405180910390a35050565b8173ffffffffffffffffffffffffffffffffffffffff168373ffffffffffffffffffffffffffffffffffffffff1603611a5b576040517f08c379a0000000000000000000000000000000000000000000000000000000008152600401611a52906134ce565b60405180910390fd5b80600560008573ffffffffffffffffffffffffffffffffffffffff1673ffffffffffffffffffffffffffffffffffffffff16815260200190815260200160002060008473ffffffffffffffffffffffffffffffffffffffff1673ffffffffffffffffffffffffffffffffffffffff16815260200190815260200160002060006101000a81548160ff0219169083151502179055508173ffffffffffffffffffffffffffffffffffffffff168373ffffffffffffffffffffffffffffffffffffffff167f17307eab39ab6107e8899845ad3d59bd9653f200f220920489ca2b5937696c3183604051611b4c91906120b1565b60405180910390a3505050565b611b64848484611514565b611b7084848484611c1c565b611baf576040517f08c379a0000000000000000000000000000000000000000000000000000000008152600401611ba690613560565b60405180910390fd5b50505050565b50505050565b50505050565b611bcb8383611da3565b611bd86000848484611c1c565b611c17576040517f08c379a0000000000000000000000000000000000000000000000000000000008152600401611c0e90613560565b60405180910390fd5b505050565b6000611c3d8473ffffffffffffffffffffffffffffffffffffffff166112e6565b15611d96578373ffffffffffffffffffffffffffffffffffffffff1663150b7a02611c666113be565b8786866040518563ffffffff1660e01b8152600401611c8894939291906135d5565b6020604051808303816000875af1925050508015611cc457506040513d601f19601f82011682018060405250810190611cc19190613636565b60015b611d46573d8060008114611cf4576040519150601f19603f3d011682016040523d82523d6000602084013e611cf9565b606091505b506000815103611d3e576040517f08c379a0000000000000000000000000000000000000000000000000000000008152600401611d3590613560565b60405180910390fd5b805181602001fd5b63150b7a0260e01b7bffffffffffffffffffffffffffffffffffffffffffffffffffffffff1916817bffffffffffffffffffffffffffffffffffffffffffffffffffffffff191614915050611d9b565b600190505b949350505050565b600073ffffffffffffffffffffffffffffffffffffffff168273ffffffffffffffffffffffffffffffffffffffff1603611e12576040517f08c379a0000000000000000000000000000000000000000000000000000000008152600401611e09906136af565b60405180910390fd5b611e1b8161188b565b15611e5b576040517f08c379a0000000000000000000000000000000000000000000000000000000008152600401611e529061371b565b60405180910390fd5b611e69600083836001611bb5565b611e728161188b565b15611eb2576040517f08c379a0000000000000000000000000000000000000000000000000000000008152600401611ea99061371b565b60405180910390fd5b6001600360008473ffffffffffffffffffffffffffffffffffffffff1673ffffffffffffffffffffffffffffffffffffffff16815260200190815260200160002060008282540192505081905550816002600083815260200190815260200160002060006101000a81548173ffffffffffffffffffffffffffffffffffffffff021916908373ffffffffffffffffffffffffffffffffffffffff160217905550808273ffffffffffffffffffffffffffffffffffffffff16600073ffffffffffffffffffffffffffffffffffffffff167fddf252ad1be2c89b69c2b068fc378daa952ba7f163c4a11628f55a4df523b3ef60405160405180910390a4611fbc600083836001611bbb565b5050565b6040518060e00160405280606081526020016060815260200160608152602001606081526020016000815260200160608152602001606081525090565b6000604051905090565b600080fd5b600080fd5b60007fffffffff0000000000000000000000000000000000000000000000000000000082169050919050565b61204681612011565b811461205157600080fd5b50565b6000813590506120638161203d565b92915050565b60006020828403121561207f5761207e612007565b5b600061208d84828501612054565b91505092915050565b60008115159050919050565b6120ab81612096565b82525050565b60006020820190506120c660008301846120a2565b92915050565b600081519050919050565b600082825260208201905092915050565b60005b838110156121065780820151818401526020810190506120eb565b60008484015250505050565b6000601f19601f8301169050919050565b600061212e826120cc565b61213881856120d7565b93506121488185602086016120e8565b61215181612112565b840191505092915050565b600060208201905081810360008301526121768184612123565b905092915050565b6000819050919050565b6121918161217e565b811461219c57600080fd5b50565b6000813590506121ae81612188565b92915050565b6000602082840312156121ca576121c9612007565b5b60006121d88482850161219f565b91505092915050565b600073ffffffffffffffffffffffffffffffffffffffff82169050919050565b600061220c826121e1565b9050919050565b61221c81612201565b82525050565b60006020820190506122376000830184612213565b92915050565b61224681612201565b811461225157600080fd5b50565b6000813590506122638161223d565b92915050565b600080604083850312156122805761227f612007565b5b600061228e85828601612254565b925050602061229f8582860161219f565b9150509250929050565b6000806000606084860312156122c2576122c1612007565b5b60006122d086828701612254565b93505060206122e186828701612254565b92505060406122f28682870161219f565b9150509250925092565b600080fd5b600080fd5b7f4e487b7100000000000000000000000000000000000000000000000000000000600052604160045260246000fd5b61233e82612112565b810181811067ffffffffffffffff8211171561235d5761235c612306565b5b80604052505050565b6000612370611ffd565b905061237c8282612335565b919050565b600067ffffffffffffffff82111561239c5761239b612306565b5b6123a582612112565b9050602081019050919050565b82818337600083830152505050565b60006123d46123cf84612381565b612366565b9050828152602081018484840111156123f0576123ef612301565b5b6123fb8482856123b2565b509392505050565b600082601f830112612418576124176122fc565b5b81356124288482602086016123c1565b91505092915050565b600080600080600080600060e0888a0312156124505761244f612007565b5b600088013567ffffffffffffffff81111561246e5761246d61200c565b5b61247a8a828b01612403565b975050602088013567ffffffffffffffff81111561249b5761249a61200c565b5b6124a78a828b01612403565b965050604088013567ffffffffffffffff8111156124c8576124c761200c565b5b6124d48a828b01612403565b955050606088013567ffffffffffffffff8111156124f5576124f461200c565b5b6125018a828b01612403565b94505060806125128a828b0161219f565b93505060a088013567ffffffffffffffff8111156125335761253261200c565b5b61253f8a828b01612403565b92505060c088013567ffffffffffffffff8111156125605761255f61200c565b5b61256c8a828b01612403565b91505092959891949750929550565b600082825260208201905092915050565b6000612597826120cc565b6125a1818561257b565b93506125b18185602086016120e8565b6125ba81612112565b840191505092915050565b6125ce8161217e565b82525050565b600060e08301600083015184820360008601526125f1828261258c565b9150506020830151848203602086015261260b828261258c565b91505060408301518482036040860152612625828261258c565b9150506060830151848203606086015261263f828261258c565b915050608083015161265460808601826125c5565b5060a083015184820360a086015261266c828261258c565b91505060c083015184820360c0860152612686828261258c565b9150508091505092915050565b600060208201905081810360008301526126ad81846125d4565b905092915050565b6000602082840312156126cb576126ca612007565b5b60006126d984828501612254565b91505092915050565b6126eb8161217e565b82525050565b600060208201905061270660008301846126e2565b92915050565b61271581612096565b811461272057600080fd5b50565b6000813590506127328161270c565b92915050565b6000806040838503121561274f5761274e612007565b5b600061275d85828601612254565b925050602061276e85828601612723565b9150509250929050565b600067ffffffffffffffff82111561279357612792612306565b5b61279c82612112565b9050602081019050919050565b60006127bc6127b784612778565b612366565b9050828152602081018484840111156127d8576127d7612301565b5b6127e38482856123b2565b509392505050565b600082601f830112612800576127ff6122fc565b5b81356128108482602086016127a9565b91505092915050565b6000806000806080858703121561283357612832612007565b5b600061284187828801612254565b945050602061285287828801612254565b93505060406128638782880161219f565b925050606085013567ffffffffffffffff8111156128845761288361200c565b5b612890878288016127eb565b91505092959194509250565b600080604083850312156128b3576128b2612007565b5b60006128c185828601612254565b92505060206128d285828601612254565b9150509250929050565b7f4e487b7100000000000000000000000000000000000000000000000000000000600052602260045260246000fd5b6000600282049050600182168061292357607f821691505b602082108103612936576129356128dc565b5b50919050565b7f4552433732313a20617070726f76616c20746f2063757272656e74206f776e6560008201527f7200000000000000000000000000000000000000000000000000000000000000602082015250565b60006129986021836120d7565b91506129a38261293c565b604082019050919050565b600060208201905081810360008301526129c78161298b565b9050919050565b7f4552433732313a20617070726f76652063616c6c6572206973206e6f7420746f60008201527f6b656e206f776e6572206f7220617070726f76656420666f7220616c6c000000602082015250565b6000612a2a603d836120d7565b9150612a35826129ce565b604082019050919050565b60006020820190508181036000830152612a5981612a1d565b9050919050565b7f4552433732313a2063616c6c6572206973206e6f7420746f6b656e206f776e6560008201527f72206f7220617070726f76656400000000000000000000000000000000000000602082015250565b6000612abc602d836120d7565b9150612ac782612a60565b604082019050919050565b60006020820190508181036000830152612aeb81612aaf565b9050919050565b7f4e465420646f6573206e6f742065786973740000000000000000000000000000600082015250565b6000612b286012836120d7565b9150612b3382612af2565b602082019050919050565b60006020820190508181036000830152612b5781612b1b565b9050919050565b60008190508160005260206000209050919050565b60006020601f8301049050919050565b600082821b905092915050565b600060088302612bc07fffffffffffffffffffffffffffffffffffffffffffffffffffffffffffffffff82612b83565b612bca8683612b83565b95508019841693508086168417925050509392505050565b6000819050919050565b6000612c07612c02612bfd8461217e565b612be2565b61217e565b9050919050565b6000819050919050565b612c2183612bec565b612c35612c2d82612c0e565b848454612b90565b825550505050565b600090565b612c4a612c3d565b612c55818484612c18565b505050565b5b81811015612c7957612c6e600082612c42565b600181019050612c5b565b5050565b601f821115612cbe57612c8f81612b5e565b612c9884612b73565b81016020851015612ca7578190505b612cbb612cb385612b73565b830182612c5a565b50505b505050565b600082821c905092915050565b6000612ce160001984600802612cc3565b1980831691505092915050565b6000612cfa8383612cd0565b9150826002028217905092915050565b612d13826120cc565b67ffffffffffffffff811115612d2c57612d2b612306565b5b612d36825461290b565b612d41828285612c7d565b600060209050601f831160018114612d745760008415612d62578287015190505b612d6c8582612cee565b865550612dd4565b601f198416612d8286612b5e565b60005b82811015612daa57848901518255600182019150602085019450602081019050612d85565b86831015612dc75784890151612dc3601f891682612cd0565b8355505b6001600288020188555050505b505050505050565b7f4e616d652063616e6e6f7420626520656d707479000000000000000000000000600082015250565b6000612e126014836120d7565b9150612e1d82612ddc565b602082019050919050565b60006020820190508181036000830152612e4181612e05565b9050919050565b7f5469636b65722063616e6e6f7420626520656d70747900000000000000000000600082015250565b6000612e7e6016836120d7565b9150612e8982612e48565b602082019050919050565b60006020820190508181036000830152612ead81612e71565b9050919050565b7f496d616765205552492063616e6e6f7420626520656d70747900000000000000600082015250565b6000612eea6019836120d7565b9150612ef582612eb4565b602082019050919050565b60006020820190508181036000830152612f1981612edd565b9050919050565b7f53697a65206f6620506963747572652063616e6e6f7420626520656d70747900600082015250565b6000612f56601f836120d7565b9150612f6182612f20565b602082019050919050565b60006020820190508181036000830152612f8581612f49565b9050919050565b7f596561722063616e6e6f7420626520656d707479000000000000000000000000600082015250565b6000612fc26014836120d7565b9150612fcd82612f8c565b602082019050919050565b60006020820190508181036000830152612ff181612fb5565b9050919050565b7f4e616d65204f6620417574686f722063616e6e6f7420626520656d7074790000600082015250565b600061302e601e836120d7565b915061303982612ff8565b602082019050919050565b6000602082019050818103600083015261305d81613021565b9050919050565b7f5374796c652063616e6e6f7420626520656d7074790000000000000000000000600082015250565b600061309a6015836120d7565b91506130a582613064565b602082019050919050565b600060208201905081810360008301526130c98161308d565b9050919050565b7f4552433732313a20696e76616c696420746f6b656e2049440000000000000000600082015250565b60006131066018836120d7565b9150613111826130d0565b602082019050919050565b60006020820190508181036000830152613135816130f9565b9050919050565b7f4552433732313a2061646472657373207a65726f206973206e6f74206120766160008201527f6c6964206f776e65720000000000000000000000000000000000000000000000602082015250565b60006131986029836120d7565b91506131a38261313c565b604082019050919050565b600060208201905081810360008301526131c78161318b565b9050919050565b7f4552433732314d657461646174613a2055524920717565727920666f72206e6f60008201527f6e6578697374656e7420746f6b656e0000000000000000000000000000000000602082015250565b600061322a602f836120d7565b9150613235826131ce565b604082019050919050565b600060208201905081810360008301526132598161321d565b9050919050565b7f4f776e61626c653a206e6577206f776e657220697320746865207a65726f206160008201527f6464726573730000000000000000000000000000000000000000000000000000602082015250565b60006132bc6026836120d7565b91506132c782613260565b604082019050919050565b600060208201905081810360008301526132eb816132af565b9050919050565b7f4552433732313a207472616e736665722066726f6d20696e636f72726563742060008201527f6f776e6572000000000000000000000000000000000000000000000000000000602082015250565b600061334e6025836120d7565b9150613359826132f2565b604082019050919050565b6000602082019050818103600083015261337d81613341565b9050919050565b7f4552433732313a207472616e7366657220746f20746865207a65726f2061646460008201527f7265737300000000000000000000000000000000000000000000000000000000602082015250565b60006133e06024836120d7565b91506133eb82613384565b604082019050919050565b6000602082019050818103600083015261340f816133d3565b9050919050565b7f4f776e61626c653a2063616c6c6572206973206e6f7420746865206f776e6572600082015250565b600061344c6020836120d7565b915061345782613416565b602082019050919050565b6000602082019050818103600083015261347b8161343f565b9050919050565b7f4552433732313a20617070726f766520746f2063616c6c657200000000000000600082015250565b60006134b86019836120d7565b91506134c382613482565b602082019050919050565b600060208201905081810360008301526134e7816134ab565b9050919050565b7f4552433732313a207472616e7366657220746f206e6f6e20455243373231526560008201527f63656976657220696d706c656d656e7465720000000000000000000000000000602082015250565b600061354a6032836120d7565b9150613555826134ee565b604082019050919050565b600060208201905081810360008301526135798161353d565b9050919050565b600081519050919050565b600082825260208201905092915050565b60006135a782613580565b6135b1818561358b565b93506135c18185602086016120e8565b6135ca81612112565b840191505092915050565b60006080820190506135ea6000830187612213565b6135f76020830186612213565b61360460408301856126e2565b8181036060830152613616818461359c565b905095945050505050565b6000815190506136308161203d565b92915050565b60006020828403121561364c5761364b612007565b5b600061365a84828501613621565b91505092915050565b7f4552433732313a206d696e7420746f20746865207a65726f2061646472657373600082015250565b60006136996020836120d7565b91506136a482613663565b602082019050919050565b600060208201905081810360008301526136c88161368c565b9050919050565b7f4552433732313a20746f6b656e20616c7265616479206d696e74656400000000600082015250565b6000613705601c836120d7565b9150613710826136cf565b602082019050919050565b60006020820190508181036000830152613734816136f8565b905091905056fea2646970667358221220f0db8269a94d05bfa75890178b2f8f9ae3144ad00ba7f8f668161a9a2ec5492f64736f6c63430008120033",
  "linkReferences": {},
  "deployedLinkReferences": {}
}