{
  "_format": "hh-sol-artifact-1",
  "contractName": "TokenFactory",
  "sourceName": "contracts/Token.sol",
  "abi": [
    {
      "inputs": [
        {
          "internalType": "string",
          "name": "_name",
          "type": "string"
        },
        {
          "internalType": "string",
          "name": "_symbol",
          "type": "string"
        },
        {
          "internalType": "address",
          "name": "_nftAddress",
          "type": "address"
        },
        {
          "internalType": "uint256",
          "name": "_supplyPerNFT",
          "type": "uint256"
        }
      ],
      "stateMutability": "nonpayable",
      "type": "constructor"
    },
    {
      "anonymous": false,
      "inputs": [
        {
          "indexed": true,
          "internalType": "address",
          "name": "owner",
          "type": "address"
        },
        {
          "indexed": true,
          "internalType": "address",
          "name": "spender",
          "type": "address"
        },
        {
          "indexed": false,
          "internalType": "uint256",
          "name": "value",
          "type": "uint256"
        }
      ],
      "name": "Approval",
      "type": "event"
    },
    {
      "anonymous": false,
      "inputs": [
        {
          "indexed": true,
          "internalType": "address",
          "name": "previousOwner",
          "type": "address"
        },
        {
          "indexed": true,
          "internalType": "address",
          "name": "newOwner",
          "type": "address"
        }
      ],
      "name": "OwnershipTransferred",
      "type": "event"
    },
    {
      "anonymous": false,
      "inputs": [
        {
          "indexed": true,
          "internalType": "address",
          "name": "from",
          "type": "address"
        },
        {
          "indexed": true,
          "internalType": "address",
          "name": "to",
          "type": "address"
        },
        {
          "indexed": false,
          "internalType": "uint256",
          "name": "value",
          "type": "uint256"
        }
      ],
      "name": "Transfer",
      "type": "event"
    },
    {
      "inputs": [
        {
          "internalType": "address",
          "name": "owner",
          "type": "address"
        },
        {
          "internalType": "address",
          "name": "spender",
          "type": "address"
        }
      ],
      "name": "allowance",
      "outputs": [
        {
          "internalType": "uint256",
          "name": "",
          "type": "uint256"
        }
      ],
      "stateMutability": "view",
      "type": "function"
    },
    {
      "inputs": [
        {
          "internalType": "address",
          "name": "spender",
          "type": "address"
        },
        {
          "internalType": "uint256",
          "name": "amount",
          "type": "uint256"
        }
      ],
      "name": "approve",
      "outputs": [
        {
          "internalType": "bool",
          "name": "",
          "type": "bool"
        }
      ],
      "stateMutability": "nonpayable",
      "type": "function"
    },
    {
      "inputs": [
        {
          "internalType": "address",
          "name": "account",
          "type": "address"
        }
      ],
      "name": "balanceOf",
      "outputs": [
        {
          "internalType": "uint256",
          "name": "",
          "type": "uint256"
        }
      ],
      "stateMutability": "view",
      "type": "function"
    },
    {
      "inputs": [
        {
          "internalType": "uint256",
          "name": "_tokenId",
          "type": "uint256"
        }
      ],
      "name": "convertToTokens",
      "outputs": [],
      "stateMutability": "nonpayable",
      "type": "function"
    },
    {
      "inputs": [],
      "name": "decimals",
      "outputs": [
        {
          "internalType": "uint8",
          "name": "",
          "type": "uint8"
        }
      ],
      "stateMutability": "view",
      "type": "function"
    },
    {
      "inputs": [
        {
          "internalType": "address",
          "name": "spender",
          "type": "address"
        },
        {
          "internalType": "uint256",
          "name": "subtractedValue",
          "type": "uint256"
        }
      ],
      "name": "decreaseAllowance",
      "outputs": [
        {
          "internalType": "bool",
          "name": "",
          "type": "bool"
        }
      ],
      "stateMutability": "nonpayable",
      "type": "function"
    },
    {
      "inputs": [
        {
          "internalType": "address",
          "name": "spender",
          "type": "address"
        },
        {
          "internalType": "uint256",
          "name": "addedValue",
          "type": "uint256"
        }
      ],
      "name": "increaseAllowance",
      "outputs": [
        {
          "internalType": "bool",
          "name": "",
          "type": "bool"
        }
      ],
      "stateMutability": "nonpayable",
      "type": "function"
    },
    {
      "inputs": [],
      "name": "name",
      "outputs": [
        {
          "internalType": "string",
          "name": "",
          "type": "string"
        }
      ],
      "stateMutability": "view",
      "type": "function"
    },
    {
      "inputs": [],
      "name": "nftAddress",
      "outputs": [
        {
          "internalType": "address",
          "name": "",
          "type": "address"
        }
      ],
      "stateMutability": "view",
      "type": "function"
    },
    {
      "inputs": [],
      "name": "owner",
      "outputs": [
        {
          "internalType": "address",
          "name": "",
          "type": "address"
        }
      ],
      "stateMutability": "view",
      "type": "function"
    },
    {
      "inputs": [
        {
          "internalType": "uint256",
          "name": "_tokenId",
          "type": "uint256"
        }
      ],
      "name": "reclaimNFT",
      "outputs": [],
      "stateMutability": "nonpayable",
      "type": "function"
    },
    {
      "inputs": [],
      "name": "renounceOwnership",
      "outputs": [],
      "stateMutability": "nonpayable",
      "type": "function"
    },
    {
      "inputs": [],
      "name": "supplyPerNFT",
      "outputs": [
        {
          "internalType": "uint256",
          "name": "",
          "type": "uint256"
        }
      ],
      "stateMutability": "view",
      "type": "function"
    },
    {
      "inputs": [],
      "name": "symbol",
      "outputs": [
        {
          "internalType": "string",
          "name": "",
          "type": "string"
        }
      ],
      "stateMutability": "view",
      "type": "function"
    },
    {
      "inputs": [],
      "name": "totalSupply",
      "outputs": [
        {
          "internalType": "uint256",
          "name": "",
          "type": "uint256"
        }
      ],
      "stateMutability": "view",
      "type": "function"
    },
    {
      "inputs": [
        {
          "internalType": "address",
          "name": "to",
          "type": "address"
        },
        {
          "internalType": "uint256",
          "name": "amount",
          "type": "uint256"
        }
      ],
      "name": "transfer",
      "outputs": [
        {
          "internalType": "bool",
          "name": "",
          "type": "bool"
        }
      ],
      "stateMutability": "nonpayable",
      "type": "function"
    },
    {
      "inputs": [
        {
          "internalType": "address",
          "name": "from",
          "type": "address"
        },
        {
          "internalType": "address",
          "name": "to",
          "type": "address"
        },
        {
          "internalType": "uint256",
          "name": "amount",
          "type": "uint256"
        }
      ],
      "name": "transferFrom",
      "outputs": [
        {
          "internalType": "bool",
          "name": "",
          "type": "bool"
        }
      ],
      "stateMutability": "nonpayable",
      "type": "function"
    },
    {
      "inputs": [
        {
          "internalType": "address",
          "name": "newOwner",
          "type": "address"
        }
      ],
      "name": "transferOwnership",
      "outputs": [],
      "stateMutability": "nonpayable",
      "type": "function"
    }
  ],
  "bytecode": "0x60806040523480156200001157600080fd5b5060405162002577380380620025778339818101604052810190620000379190620003d2565b838381600390816200004a9190620006c3565b5080600490816200005c9190620006c3565b5050506200007f62000073620000d160201b60201c565b620000d960201b60201c565b8060078190555081600660006101000a81548173ffffffffffffffffffffffffffffffffffffffff021916908373ffffffffffffffffffffffffffffffffffffffff16021790555050505050620007aa565b600033905090565b6000600560009054906101000a900473ffffffffffffffffffffffffffffffffffffffff16905081600560006101000a81548173ffffffffffffffffffffffffffffffffffffffff021916908373ffffffffffffffffffffffffffffffffffffffff1602179055508173ffffffffffffffffffffffffffffffffffffffff168173ffffffffffffffffffffffffffffffffffffffff167f8be0079c531659141344cd1fd0a4f28419497f9722a3daafe3b4186f6b6457e060405160405180910390a35050565b6000604051905090565b600080fd5b600080fd5b600080fd5b600080fd5b6000601f19601f8301169050919050565b7f4e487b7100000000000000000000000000000000000000000000000000000000600052604160045260246000fd5b6200020882620001bd565b810181811067ffffffffffffffff821117156200022a5762000229620001ce565b5b80604052505050565b60006200023f6200019f565b90506200024d8282620001fd565b919050565b600067ffffffffffffffff82111562000270576200026f620001ce565b5b6200027b82620001bd565b9050602081019050919050565b60005b83811015620002a85780820151818401526020810190506200028b565b60008484015250505050565b6000620002cb620002c58462000252565b62000233565b905082815260208101848484011115620002ea57620002e9620001b8565b5b620002f784828562000288565b509392505050565b600082601f830112620003175762000316620001b3565b5b815162000329848260208601620002b4565b91505092915050565b600073ffffffffffffffffffffffffffffffffffffffff82169050919050565b60006200035f8262000332565b9050919050565b620003718162000352565b81146200037d57600080fd5b50565b600081519050620003918162000366565b92915050565b6000819050919050565b620003ac8162000397565b8114620003b857600080fd5b50565b600081519050620003cc81620003a1565b92915050565b60008060008060808587031215620003ef57620003ee620001a9565b5b600085015167ffffffffffffffff81111562000410576200040f620001ae565b5b6200041e87828801620002ff565b945050602085015167ffffffffffffffff811115620004425762000441620001ae565b5b6200045087828801620002ff565b9350506040620004638782880162000380565b92505060606200047687828801620003bb565b91505092959194509250565b600081519050919050565b7f4e487b7100000000000000000000000000000000000000000000000000000000600052602260045260246000fd5b60006002820490506001821680620004d557607f821691505b602082108103620004eb57620004ea6200048d565b5b50919050565b60008190508160005260206000209050919050565b60006020601f8301049050919050565b600082821b905092915050565b600060088302620005557fffffffffffffffffffffffffffffffffffffffffffffffffffffffffffffffff8262000516565b62000561868362000516565b95508019841693508086168417925050509392505050565b6000819050919050565b6000620005a46200059e620005988462000397565b62000579565b62000397565b9050919050565b6000819050919050565b620005c08362000583565b620005d8620005cf82620005ab565b84845462000523565b825550505050565b600090565b620005ef620005e0565b620005fc818484620005b5565b505050565b5b81811015620006245762000618600082620005e5565b60018101905062000602565b5050565b601f82111562000673576200063d81620004f1565b620006488462000506565b8101602085101562000658578190505b62000670620006678562000506565b83018262000601565b50505b505050565b600082821c905092915050565b6000620006986000198460080262000678565b1980831691505092915050565b6000620006b3838362000685565b9150826002028217905092915050565b620006ce8262000482565b67ffffffffffffffff811115620006ea57620006e9620001ce565b5b620006f68254620004bc565b6200070382828562000628565b600060209050601f8311600181146200073b576000841562000726578287015190505b620007328582620006a5565b865550620007a2565b601f1984166200074b86620004f1565b60005b8281101562000775578489015182556001820191506020850194506020810190506200074e565b8683101562000795578489015162000791601f89168262000685565b8355505b6001600288020188555050505b505050505050565b611dbd80620007ba6000396000f3fe608060405234801561001057600080fd5b50600436106101165760003560e01c8063715018a6116100a2578063a08db82e11610071578063a08db82e146102d3578063a457c2d7146102ef578063a9059cbb1461031f578063dd62ed3e1461034f578063f2fde38b1461037f57610116565b8063715018a614610271578063859062561461027b5780638da5cb5b1461029757806395d89b41146102b557610116565b80632caba874116100e95780632caba874146101b7578063313ce567146101d557806339509351146101f35780635bf8633a1461022357806370a082311461024157610116565b806306fdde031461011b578063095ea7b31461013957806318160ddd1461016957806323b872dd14610187575b600080fd5b61012361039b565b6040516101309190611312565b60405180910390f35b610153600480360381019061014e91906113cd565b61042d565b6040516101609190611428565b60405180910390f35b610171610450565b60405161017e9190611452565b60405180910390f35b6101a1600480360381019061019c919061146d565b61045a565b6040516101ae9190611428565b60405180910390f35b6101bf610489565b6040516101cc9190611452565b60405180910390f35b6101dd61048f565b6040516101ea91906114dc565b60405180910390f35b61020d600480360381019061020891906113cd565b610498565b60405161021a9190611428565b60405180910390f35b61022b6104cf565b6040516102389190611506565b60405180910390f35b61025b60048036038101906102569190611521565b6104f5565b6040516102689190611452565b60405180910390f35b61027961053d565b005b6102956004803603810190610290919061154e565b610551565b005b61029f6105f1565b6040516102ac9190611506565b60405180910390f35b6102bd61061b565b6040516102ca9190611312565b60405180910390f35b6102ed60048036038101906102e8919061154e565b6106ad565b005b610309600480360381019061030491906113cd565b61079a565b6040516103169190611428565b60405180910390f35b610339600480360381019061033491906113cd565b610811565b6040516103469190611428565b60405180910390f35b6103696004803603810190610364919061157b565b610834565b6040516103769190611452565b60405180910390f35b61039960048036038101906103949190611521565b6108bb565b005b6060600380546103aa906115ea565b80601f01602080910402602001604051908101604052809291908181526020018280546103d6906115ea565b80156104235780601f106103f857610100808354040283529160200191610423565b820191906000526020600020905b81548152906001019060200180831161040657829003601f168201915b5050505050905090565b60008061043861093e565b9050610445818585610946565b600191505092915050565b6000600254905090565b60008061046561093e565b9050610472858285610b0f565b61047d858585610b9b565b60019150509392505050565b60075481565b60006012905090565b6000806104a361093e565b90506104c48185856104b58589610834565b6104bf919061164a565b610946565b600191505092915050565b600660009054906101000a900473ffffffffffffffffffffffffffffffffffffffff1681565b60008060008373ffffffffffffffffffffffffffffffffffffffff1673ffffffffffffffffffffffffffffffffffffffff168152602001908152602001600020549050919050565b610545610e11565b61054f6000610e8f565b565b600660009054906101000a900473ffffffffffffffffffffffffffffffffffffffff1673ffffffffffffffffffffffffffffffffffffffff166323b872dd3330846040518463ffffffff1660e01b81526004016105b09392919061167e565b600060405180830381600087803b1580156105ca57600080fd5b505af11580156105de573d6000803e3d6000fd5b505050506105ee33600754610f55565b50565b6000600560009054906101000a900473ffffffffffffffffffffffffffffffffffffffff16905090565b60606004805461062a906115ea565b80601f0160208091040260200160405190810160405280929190818152602001828054610656906115ea565b80156106a35780601f10610678576101008083540402835291602001916106a3565b820191906000526020600020905b81548152906001019060200180831161068657829003601f168201915b5050505050905090565b6007546106b9336104f5565b10156106fa576040517f08c379a00000000000000000000000000000000000000000000000000000000081526004016106f190611701565b60405180910390fd5b610706336007546110ab565b600660009054906101000a900473ffffffffffffffffffffffffffffffffffffffff1673ffffffffffffffffffffffffffffffffffffffff166342842e0e3033846040518463ffffffff1660e01b81526004016107659392919061167e565b600060405180830381600087803b15801561077f57600080fd5b505af1158015610793573d6000803e3d6000fd5b5050505050565b6000806107a561093e565b905060006107b38286610834565b9050838110156107f8576040517f08c379a00000000000000000000000000000000000000000000000000000000081526004016107ef90611793565b60405180910390fd5b6108058286868403610946565b60019250505092915050565b60008061081c61093e565b9050610829818585610b9b565b600191505092915050565b6000600160008473ffffffffffffffffffffffffffffffffffffffff1673ffffffffffffffffffffffffffffffffffffffff16815260200190815260200160002060008373ffffffffffffffffffffffffffffffffffffffff1673ffffffffffffffffffffffffffffffffffffffff16815260200190815260200160002054905092915050565b6108c3610e11565b600073ffffffffffffffffffffffffffffffffffffffff168173ffffffffffffffffffffffffffffffffffffffff1603610932576040517f08c379a000000000000000000000000000000000000000000000000000000000815260040161092990611825565b60405180910390fd5b61093b81610e8f565b50565b600033905090565b600073ffffffffffffffffffffffffffffffffffffffff168373ffffffffffffffffffffffffffffffffffffffff16036109b5576040517f08c379a00000000000000000000000000000000000000000000000000000000081526004016109ac906118b7565b60405180910390fd5b600073ffffffffffffffffffffffffffffffffffffffff168273ffffffffffffffffffffffffffffffffffffffff1603610a24576040517f08c379a0000000000000000000000000000000000000000000000000000000008152600401610a1b90611949565b60405180910390fd5b80600160008573ffffffffffffffffffffffffffffffffffffffff1673ffffffffffffffffffffffffffffffffffffffff16815260200190815260200160002060008473ffffffffffffffffffffffffffffffffffffffff1673ffffffffffffffffffffffffffffffffffffffff168152602001908152602001600020819055508173ffffffffffffffffffffffffffffffffffffffff168373ffffffffffffffffffffffffffffffffffffffff167f8c5be1e5ebec7d5bd14f71427d1e84f3dd0314c0f7b2291e5b200ac8c7c3b92583604051610b029190611452565b60405180910390a3505050565b6000610b1b8484610834565b90507fffffffffffffffffffffffffffffffffffffffffffffffffffffffffffffffff8114610b955781811015610b87576040517f08c379a0000000000000000000000000000000000000000000000000000000008152600401610b7e906119b5565b60405180910390fd5b610b948484848403610946565b5b50505050565b600073ffffffffffffffffffffffffffffffffffffffff168373ffffffffffffffffffffffffffffffffffffffff1603610c0a576040517f08c379a0000000000000000000000000000000000000000000000000000000008152600401610c0190611a47565b60405180910390fd5b600073ffffffffffffffffffffffffffffffffffffffff168273ffffffffffffffffffffffffffffffffffffffff1603610c79576040517f08c379a0000000000000000000000000000000000000000000000000000000008152600401610c7090611ad9565b60405180910390fd5b610c84838383611278565b60008060008573ffffffffffffffffffffffffffffffffffffffff1673ffffffffffffffffffffffffffffffffffffffff16815260200190815260200160002054905081811015610d0a576040517f08c379a0000000000000000000000000000000000000000000000000000000008152600401610d0190611b6b565b60405180910390fd5b8181036000808673ffffffffffffffffffffffffffffffffffffffff1673ffffffffffffffffffffffffffffffffffffffff16815260200190815260200160002081905550816000808573ffffffffffffffffffffffffffffffffffffffff1673ffffffffffffffffffffffffffffffffffffffff168152602001908152602001600020600082825401925050819055508273ffffffffffffffffffffffffffffffffffffffff168473ffffffffffffffffffffffffffffffffffffffff167fddf252ad1be2c89b69c2b068fc378daa952ba7f163c4a11628f55a4df523b3ef84604051610df89190611452565b60405180910390a3610e0b84848461127d565b50505050565b610e1961093e565b73ffffffffffffffffffffffffffffffffffffffff16610e376105f1565b73ffffffffffffffffffffffffffffffffffffffff1614610e8d576040517f08c379a0000000000000000000000000000000000000000000000000000000008152600401610e8490611bd7565b60405180910390fd5b565b6000600560009054906101000a900473ffffffffffffffffffffffffffffffffffffffff16905081600560006101000a81548173ffffffffffffffffffffffffffffffffffffffff021916908373ffffffffffffffffffffffffffffffffffffffff1602179055508173ffffffffffffffffffffffffffffffffffffffff168173ffffffffffffffffffffffffffffffffffffffff167f8be0079c531659141344cd1fd0a4f28419497f9722a3daafe3b4186f6b6457e060405160405180910390a35050565b600073ffffffffffffffffffffffffffffffffffffffff168273ffffffffffffffffffffffffffffffffffffffff1603610fc4576040517f08c379a0000000000000000000000000000000000000000000000000000000008152600401610fbb90611c43565b60405180910390fd5b610fd060008383611278565b8060026000828254610fe2919061164a565b92505081905550806000808473ffffffffffffffffffffffffffffffffffffffff1673ffffffffffffffffffffffffffffffffffffffff168152602001908152602001600020600082825401925050819055508173ffffffffffffffffffffffffffffffffffffffff16600073ffffffffffffffffffffffffffffffffffffffff167fddf252ad1be2c89b69c2b068fc378daa952ba7f163c4a11628f55a4df523b3ef836040516110939190611452565b60405180910390a36110a76000838361127d565b5050565b600073ffffffffffffffffffffffffffffffffffffffff168273ffffffffffffffffffffffffffffffffffffffff160361111a576040517f08c379a000000000000000000000000000000000000000000000000000000000815260040161111190611cd5565b60405180910390fd5b61112682600083611278565b60008060008473ffffffffffffffffffffffffffffffffffffffff1673ffffffffffffffffffffffffffffffffffffffff168152602001908152602001600020549050818110156111ac576040517f08c379a00000000000000000000000000000000000000000000000000000000081526004016111a390611d67565b60405180910390fd5b8181036000808573ffffffffffffffffffffffffffffffffffffffff1673ffffffffffffffffffffffffffffffffffffffff1681526020019081526020016000208190555081600260008282540392505081905550600073ffffffffffffffffffffffffffffffffffffffff168373ffffffffffffffffffffffffffffffffffffffff167fddf252ad1be2c89b69c2b068fc378daa952ba7f163c4a11628f55a4df523b3ef8460405161125f9190611452565b60405180910390a36112738360008461127d565b505050565b505050565b505050565b600081519050919050565b600082825260208201905092915050565b60005b838110156112bc5780820151818401526020810190506112a1565b60008484015250505050565b6000601f19601f8301169050919050565b60006112e482611282565b6112ee818561128d565b93506112fe81856020860161129e565b611307816112c8565b840191505092915050565b6000602082019050818103600083015261132c81846112d9565b905092915050565b600080fd5b600073ffffffffffffffffffffffffffffffffffffffff82169050919050565b600061136482611339565b9050919050565b61137481611359565b811461137f57600080fd5b50565b6000813590506113918161136b565b92915050565b6000819050919050565b6113aa81611397565b81146113b557600080fd5b50565b6000813590506113c7816113a1565b92915050565b600080604083850312156113e4576113e3611334565b5b60006113f285828601611382565b9250506020611403858286016113b8565b9150509250929050565b60008115159050919050565b6114228161140d565b82525050565b600060208201905061143d6000830184611419565b92915050565b61144c81611397565b82525050565b60006020820190506114676000830184611443565b92915050565b60008060006060848603121561148657611485611334565b5b600061149486828701611382565b93505060206114a586828701611382565b92505060406114b6868287016113b8565b9150509250925092565b600060ff82169050919050565b6114d6816114c0565b82525050565b60006020820190506114f160008301846114cd565b92915050565b61150081611359565b82525050565b600060208201905061151b60008301846114f7565b92915050565b60006020828403121561153757611536611334565b5b600061154584828501611382565b91505092915050565b60006020828403121561156457611563611334565b5b6000611572848285016113b8565b91505092915050565b6000806040838503121561159257611591611334565b5b60006115a085828601611382565b92505060206115b185828601611382565b9150509250929050565b7f4e487b7100000000000000000000000000000000000000000000000000000000600052602260045260246000fd5b6000600282049050600182168061160257607f821691505b602082108103611615576116146115bb565b5b50919050565b7f4e487b7100000000000000000000000000000000000000000000000000000000600052601160045260246000fd5b600061165582611397565b915061166083611397565b92508282019050808211156116785761167761161b565b5b92915050565b600060608201905061169360008301866114f7565b6116a060208301856114f7565b6116ad6040830184611443565b949350505050565b7f496e73756666696369656e7420746f6b656e7300000000000000000000000000600082015250565b60006116eb60138361128d565b91506116f6826116b5565b602082019050919050565b6000602082019050818103600083015261171a816116de565b9050919050565b7f45524332303a2064656372656173656420616c6c6f77616e63652062656c6f7760008201527f207a65726f000000000000000000000000000000000000000000000000000000602082015250565b600061177d60258361128d565b915061178882611721565b604082019050919050565b600060208201905081810360008301526117ac81611770565b9050919050565b7f4f776e61626c653a206e6577206f776e657220697320746865207a65726f206160008201527f6464726573730000000000000000000000000000000000000000000000000000602082015250565b600061180f60268361128d565b915061181a826117b3565b604082019050919050565b6000602082019050818103600083015261183e81611802565b9050919050565b7f45524332303a20617070726f76652066726f6d20746865207a65726f2061646460008201527f7265737300000000000000000000000000000000000000000000000000000000602082015250565b60006118a160248361128d565b91506118ac82611845565b604082019050919050565b600060208201905081810360008301526118d081611894565b9050919050565b7f45524332303a20617070726f766520746f20746865207a65726f20616464726560008201527f7373000000000000000000000000000000000000000000000000000000000000602082015250565b600061193360228361128d565b915061193e826118d7565b604082019050919050565b6000602082019050818103600083015261196281611926565b9050919050565b7f45524332303a20696e73756666696369656e7420616c6c6f77616e6365000000600082015250565b600061199f601d8361128d565b91506119aa82611969565b602082019050919050565b600060208201905081810360008301526119ce81611992565b9050919050565b7f45524332303a207472616e736665722066726f6d20746865207a65726f20616460008201527f6472657373000000000000000000000000000000000000000000000000000000602082015250565b6000611a3160258361128d565b9150611a3c826119d5565b604082019050919050565b60006020820190508181036000830152611a6081611a24565b9050919050565b7f45524332303a207472616e7366657220746f20746865207a65726f206164647260008201527f6573730000000000000000000000000000000000000000000000000000000000602082015250565b6000611ac360238361128d565b9150611ace82611a67565b604082019050919050565b60006020820190508181036000830152611af281611ab6565b9050919050565b7f45524332303a207472616e7366657220616d6f756e742065786365656473206260008201527f616c616e63650000000000000000000000000000000000000000000000000000602082015250565b6000611b5560268361128d565b9150611b6082611af9565b604082019050919050565b60006020820190508181036000830152611b8481611b48565b9050919050565b7f4f776e61626c653a2063616c6c6572206973206e6f7420746865206f776e6572600082015250565b6000611bc160208361128d565b9150611bcc82611b8b565b602082019050919050565b60006020820190508181036000830152611bf081611bb4565b9050919050565b7f45524332303a206d696e7420746f20746865207a65726f206164647265737300600082015250565b6000611c2d601f8361128d565b9150611c3882611bf7565b602082019050919050565b60006020820190508181036000830152611c5c81611c20565b9050919050565b7f45524332303a206275726e2066726f6d20746865207a65726f2061646472657360008201527f7300000000000000000000000000000000000000000000000000000000000000602082015250565b6000611cbf60218361128d565b9150611cca82611c63565b604082019050919050565b60006020820190508181036000830152611cee81611cb2565b9050919050565b7f45524332303a206275726e20616d6f756e7420657863656564732062616c616e60008201527f6365000000000000000000000000000000000000000000000000000000000000602082015250565b6000611d5160228361128d565b9150611d5c82611cf5565b604082019050919050565b60006020820190508181036000830152611d8081611d44565b905091905056fea264697066735822122093de29192bc6ccb98b756d304731bff0eafc6e6f9204539bfc908d601663dab964736f6c63430008120033",
  "linkReferences": {},
  "deployedLinkReferences": {}
}